:020000040000FA
:020000000528D1
:08000800292AA001A101A201B7
:10001000A301A401A501A601A701A801A901AA01A4
:10002000AB01AF01B001B101B201B40183120313FE
:100030008501860189018701880183160313073032
:100040009F0083160313870183160313890183120C
:1000500003138701890183160313F3308600831687
:100060000313880101210B2180308B21AF21433004
:100070007F2148307F2141307F214C307F214C301F
:100080007F2145307F214E307F2147307F21453011
:100090007F2131307F21061C4B280608F039A00053
:1000A000A00E52282008023A031978282008033AA3
:1000B000031978282008053A031978282008073AF8
:1000C0000319782820080B3A0319782820080D3ADC
:1000D00003197828831203130910891009110030BD
:1000E0008820831203138700A121A1210B21B028AE
:1000F00083120313091489100911A60A01308820FC
:100100008700A121A1210B21831203138701B028AD
:100110008207B6348C3431088207BB2AC72AD32A17
:10012000DF2AEB2A2F0882070000C034C034F934DC
:10013000F934A434A434B034B034993499349234BA
:10014000923482348234F834F834803480349034F9
:1001500090343108820708340734083404340D34ED
:100160000618B02862210B2180308B21AF2143304B
:100170007F2148307F2141307F214C307F214C301E
:100180007F2145307F214E307F2147307F21453010
:100190007F2132307F21061CCB28831203131F15C9
:1001A000831203130C1FD2280C13831203131E088F
:1001B000A800DB28CB281930A10021082802A300C1
:1001C000031CF8203430A2002308220203180E2159
:1001D000A121A708031DBB296730A2002308220222
:1001E000031CBB293A218312031389100000CB287A
:1001F0002308A2000030A3002208A30208000B215C
:100200000528A12138308B210E308B210B2106309F
:100210008B219721080001308B210800A7140B21A6
:1002200080308B21972197219721972159307F2169
:100230004F307F2155307F2120307F2141307F2179
:1002400052307F2145307F2120307F2143307F2174
:100250004F307F2152307F2152307F2145307F2126
:1002600043307F2154307F2121307F2183120313BB
:10027000891408000B2180308B2197219721972129
:10028000972159307F214F307F2155307F212030F9
:100290007F2141307F2152307F2145307F21203026
:1002A0007F2153307F214F307F2120307F21433009
:1002B0007F214C307F214F307F2153307F214530CB
:1002C0007F2108008316031310309F008316031349
:1002D00001308500831603138801831603138901F7
:1002E00083160313033086008312031301309F002B
:1002F0008312031385018801890186010800831296
:1003000003138800831203130615861500000000EE
:1003100086119721080083120313880083120313A8
:1003200006118615000000008611972108007B3019
:10033000A4000730A500A40B9B29A50B9B29000056
:100340000800AC30A9001330AA000630AB00A90B9E
:10035000A729AA0BA729AB0BA72900000800972102
:100360009721972197210800A121A121A121A12155
:10037000A121A12108000618BB298316031306300A
:100380009F00831603138501F330860087018801DF
:100390008901831203138501860187018801890180
:1003A00065223E22061CD22952221430AF0061225F
:1003B0004822A920B0000B21AF218B288618E529FF
:1003C00001302F0203190E2ADE290608F039B20087
:1003D000B20E30083202031D0E2A831203131010CE
:1003E000831203130915A121A121A60803190E2ABE
:1003F000A70803190E2A0B21AF217E229630B400E4
:10040000012A83120313091489140915AF21091055
:1004100089100911AF21B40B012A162A8312031384
:1004200010100B21AF21A422B421162A0910891023
:1004300009110B2187010528B930AC000430AD004B
:100440000230AE00AC0B222AAD0B222AAE0B222AC0
:100450000800831203130B190B11831203130C1CD6
:1004600009000C102F08AF0B3C2A83120313101045
:10047000831603130C10090061220900831603136D
:1004800007308100831203138B160B118B170800A2
:1004900001080739B10003303119B1028312031387
:1004A0008B12080083120313313090008312031360
:1004B0000C10831603130C14831203130B178B17E2
:1004C000080092208700AF2108000B2180308B218B
:1004D000AF2143307F2148307F2141307F214C3094
:1004E0007F214C307F2145307F214E307F214730A6
:1004F0007F2145307F2133307F2108000B21803060
:100500008B21AF2159307F214F307F2155307F2102
:1005100020307F2157307F2149307F214E307F218D
:1005200021307F2120307F2145307F2173307F2192
:1005300063307F2161307F2170307F2165307F21E2
:1005400083120313851408000B2180308B21AF2107
:1005500048307F2161307F2172307F2164307F21DC
:1005600020307F216C307F2175307F2163307F21E7
:100570006B307F21080080308B21AF2135307F2107
:100580002B307F2133307F213D307F21DE298030A9
:100590008B21AF2139307F212D307F2132307F21D7
:1005A0003D307F21DE2980308B21AF2134307F2107
:1005B00078307F2132307F213D307F21DE2980302D
:1005C0008B21AF2138307F212F307F2132307F21A6
:1005D0003D307F21DE2980308B21AF2136307F21D5
:0E05E0002B307F2137307F213D307F21DE29F7
:02400E003A3F37
:00000001FF
